S00F00004C6162385F56322E73726563E7
S11300000C9460000C947D000C947D000C947D0095
S11300100C947D000C947D000C947D000C947D0068
S11300200C947D000C947D000C947D000C947D0058
S11300300C947D000C947D000C947D000C947D0048
S11300400C947D000C947D000C94D0000C949C00C6
S11300500C947D000C947D000C947D000C947D0028
S11300600C947D000C947D000C947D000C947D0018
S11300700C947D000C947D000C947D000C947D0008
S11300800C947D000C947D000C947D000C947D00F8
S11300900C947D000C947D000C947D000C947D00E8
S11300A00C947D000C947D000C947D000C947D00D8
S11300B00C947D006364696E6F70737578585B008F
S11300C011241FBECFEFD8E0DEBFCDBF12E0A0E009
S11300D0B1E0ECE5F3E102C005900D92A437B1075D
S11300E0D9F723E0A4E7B2E001C01D92A63CB20711
S11300F0E1F70E9465010C94AC090C940000F8949B
S1130100682F8AE792E00E94EE027894E1ECF0E036
S113011080818062808380E090E0089584E792E0AB
S11301200E94D1028111FACFF89484E792E00E94F0
S1130130D802789490E008951F920F920FB60F9210
S113014011242F933F934F935F936F937F938F93D8
S11301509F93AF93BF93EF93FF938AE792E00E943C
S1130160D102882331F0E1ECF0E080818F7D80833F
S113017006C08AE792E00E94D8028093C600FF91ED
S1130180EF91BF91AF919F918F917F916F915F910B
S11301904F913F912F910F900FBE0F901F90189584
S11301A01F920F920FB60F9211242F933F934F93E8
S11301B05F936F937F938F939F93AF93BF93CF93EB
S11301C0DF93EF93FF9384E792E00E94BE028430B2
S11301D040F1C091C600CD30B9F46DE084E792E0FF
S11301E00E94EE026AE084E792E00E94EE02C0EC14
S11301F0D3E06A817B818DE00E947F006A817B81EC
S11302008AE00E947F0014C06C2F84E792E00E9471
S1130210EE026091C2037091C3038C2F0E947F0091
S113022007C06091C2037091C30387E00E947F00FE
S1130230FF91EF91DF91CF91BF91AF919F918F91FA
S11302407F916F915F914F913F912F910F900FBECE
S11302500F901F90189587E690E09093C5008093C7
S1130260C40088EB8093C10086E08093C2000895A7
S11302708AB180648AB993E894BD83E085BD84B172
S1130280826084B981E8809380008BE08093810050
S113029084B1886084B99093B00084E08093B10005
S11302A087B1886087B988B1886088B908958095D6
S11302B087BD8FEF90E0861B91099093890080930E
S11302C0880040954093B3000895CF93DF93CDB752
S11302D0DEB7C254D1090FB6F894DEBF0FBECDBF4E
S11302E00E9438014FEF6FEF8FEF0E9457011EAE4F
S11302F01DAE21961FAE1EAE219723961FAE1EAED5
S1130300239740EA60E273E08AE792E00E94B60233
S113031040EA60E872E084E792E00E94B602E0EC12
S1130320F3E08EE091E09383828380E091E0918317
S113033080830E942B018CE191E09F938F930E9414
S11303406D034091C0035091C10367E270E08E01D8
S11303500F5F1F4FC8010E944103F8010190002064
S1130360E9F73197E01BF10B3297E00FF11F108290
S11303706FE271E0C8010E9438030F900F90892B3F
S113038071F581E391E09F938F930E946D0385E45F
S113039091E09F938F930E946D0389E591E09F9371
S11303A08F930E946D038FE691E09F938F930E9439
S11303B06D0384E891E09F938F930E946D038DE910
S11303C091E09F938F930E946D038AEA91E00E94CB
S11303D083030FB6F894DEBF0FBECDBFACCF8981C7
S11303E0873411F583EC91E09F938F930E946D0302
S11303F0CE01CF969F938F9382EF91E09F938F933B
S11304000E94B30321968FAD21978F938FAD8F9365
S11304108DEC91E09F938F930E946D030FB6F89437
S1130420DEBF0FBECDBF87CF823501F583EC91E0EF
S11304309F938F930E946D03CE01CD969F938F93CC
S113044082EF91E09F938F930E94B3038EAD8F93BD
S11304508DAD8F9382EE91E09F938F930E946D03F5
S11304600FB6F894DEBF0FBECDBF65CF823411F551
S113047083EC91E09F938F930E946D038E010F5B39
S11304801F4F1F930F9382EF91E09F938F930E94CE
S1130490B303F80181818F9380818F9385EF91E07D
S11304A09F938F930E946D030FB6F894DEBF0FBE27
S11304B0CDBF41CF69E072E0CE0101960E943803BE
S11304C0892B29F522964FAD22976FAD8DAD0E94F1
S11304D0570123968FAD23978F9322968FAD229742
S11304E08F9321968FAD21978F938FAD8F938EAD80
S11304F08F938DAD8F938BE092E09F938F930E94A7
S11305006D030FB6F894DEBF0FBECDBF14CF6BE200
S113051072E0CE0101960E943803892BF1F42396F0
S11305208FAD23978F9322968FAD22978F93219629
S11305308FAD21978F938FAD8F938EAD8F938DADAC
S11305408F938DE292E09F938F930E946D030FB679
S1130550F894DEBF0FBECDBFEECE89E492E09F9348
S11305608F930E946D030F900F90E5CEFC014083A2
S1130570728361831582148213820895FC0185813C
S113058081110DC02381608170E0CB010197820F3E
S1130590911D2481821B91090E94100308958FEFFD
S11305A00895FC012481938181E0291380E008955A
S11305B0FC01158284819381891771F0A181B28134
S11305C090E0A80FB91F2C910196608170E00E9401
S11305D010038483822F08958FEF0895CF93FC0135
S11305E0C62F4381842F90E00196608170E00E94C1
S11305F01003248130E08217930719F481E0858386
S11306000DC0A181B281A40FB11DCC93838190E070
S11306100196608170E00E9410038383CF91089556
S113062097FB072E16F4009407D077FD09D00E949B
S1130630240307FC05D03EF4909581959F4F0895BF
S1130640709561957F4F0895AA1BBB1B51E107C0AC
S1130650AA1FBB1FA617B70710F0A61BB70B881F4E
S1130660991F5A95A9F780959095BC01CD010895DD
S1130670FB01DC018D91019080190110D9F3990BD4
S11306800895A0E0B0E0E7E4F3E00C947F09FA01F8
S1130690238120FD03C080E090E01AC016161706DF
S11306A0D4F77A018C01EB016C01C130D10569F0FA
S11306B0C7010E9481088F3FFFEF9F0761F3F60196
S11306C081936F0121970A9781F7F6011082C8017F
S11306D0CDB7DEB7E8E00C949B09A0E0B0E0E3E717
S11306E0F3E00C948509AE014B5F5F4FFA01619111
S11306F07191AF018091C2039091C3030E94C90319
S1130700E2E00C94A1090F931F93CF93DF93E09140
S1130710C203F091C303238121FF1BC08C01D0E0ED
S1130720C0E0F80181918F016091C2037091C3030D
S1130730DB011896ED91FC911997882331F0099506
S1130740892B79F3DFEFCFEFECCF8AE00995892B82
S113075019F08FEF9FEF02C08D2F9C2FDF91CF9167
S11307601F910F910895A0E0B0E0E9EBF3E00C9441
S11307708509AE014B5F5F4FFA0161917191AF0141
S11307808091C0039091C1030E944607E2E00C945B
S1130790A109ABE0B0E0EFECF3E00C9475096C0157
S11307A07B018A01FC0117821682838181FFCCC1FF
S11307B0CE0101963C01F6019381F70193FD8591E9
S11307C093FF81917F01882309F4BAC1853239F4FA
S11307D093FD859193FF81917F01853229F4B601C0
S11307E090E00E94BF08E7CF912C212C312CFFE12F
S11307F0F315D8F08B3279F038F4803279F0833203
S1130800A1F4232D20611DC08D3261F0803369F481
S1130810232D216016C0832D8260382EE32DE460E1
S11308203E2E2AC0F32DF8601DC037FC2DC020EDEC
S1130830280F2A3040F08E32B9F436FC81C1232DC2
S11308402064322E19C036FE06C08AE0989E200D20
S11308501124922E11C0EAE02E9E200D1124222E86
S1130860F32DF0623F2E08C08C3621F4832D80686E
S1130870382E02C0883641F4F70193FD859193FF29
S113088081917F018111B3CF982F9F7D955493302F
S113089028F40C5F1F4F9FE399830DC0833631F01A
S11308A0833771F0833509F059C021C0F801808184
S11308B089830E5F1F4F88248394912C530113C0A6
S11308C02801F2E04F0E511CF801A080B18036FEE1
S11308D003C0692D70E002C06FEF7FEFC5010E9475
S11308E076084C018201F32DFF773F2E16C02801B4
S11308F022E0420E511CF801A080B18036FE03C0F4
S1130900692D70E002C06FEF7FEFC5010E946B0894
S11309104C01F32DF0683F2E820133FC1BC0822D65
S113092090E088169906B0F4B60180E290E00E9447
S1130930BF082A94F4CFF50137FC859137FE8191E5
S11309405F01B60190E00E94BF0821102A9421E0C3
S1130950821A91088114910471F7E8C0843611F069
S1130960893641F5F80137FE07C0608171818281C3
S113097093810C5F1F4F08C060817181072E000CAA
S1130980880B990B0E5F1F4FF32DFF763F2E97FFB9
S113099009C090958095709561957F4F8F4F9F4FBB
S11309A0F0683F2E2AE030E0A3010E941409882E4B
S11309B0861845C0853731F4232D2F7EB22E2AE0C8
S11309C030E025C0932D997FB92E8F36C1F018F4ED
S11309D0883579F0B5C0803719F0883721F0B0C078
S11309E0E92FE061BE2EB4FE0DC0FB2DF460BF2ED6
S11309F009C034FE0AC0292F2660B22E06C028E0A2
S1130A0030E005C020E130E002C020E132E0F8012E
S1130A10B7FE07C060817181828193810C5F1F4F93
S1130A2006C06081718180E090E00E5F1F4FA301DA
S1130A300E941409882E8618FB2DFF773F2E36FE60
S1130A400DC0232D2E7FA22E891458F434FE0BC022
S1130A5032FC09C0832D8E7EA82E05C0B82CA32C91
S1130A6003C0B82C01C0B92CA4FE0FC0FE01E80DD0
S1130A70F11D8081803321F49A2D997EA92E09C01D
S1130A80A2FE06C0B394B39404C08A2D867809F0FC
S1130A90B394A3FC11C0A0FE06C0B21488F4280CC1
S1130AA0922C9B180EC0B21460F4B60180E290E060
S1130AB00E94BF08B394F7CFB21418F42B1802C0E5
S1130AC0982C212CA4FE10C0B60180E390E00E9473
S1130AD0BF08A2FE17C0A1FC03C088E790E002C0D3
S1130AE088E590E0B6010CC08A2D867859F0A1FE05
S1130AF002C08BE201C080E2A7FC8DE2B60190E067
S1130B000E94BF08891438F4B60180E390E00E9483
S1130B10BF089A94F7CF8A94F301E80DF11D808100
S1130B20B60190E00E94BF088110F5CF222009F49D
S1130B3042CEB60180E290E00E94BF082A94F6CF2C
S1130B40F6018681978102C08FEF9FEF2B96E2E139
S1130B500C94910920FD09C0FC0123FD05C022FF6E
S1130B6002C07383628351834083089544FD17C098
S1130B7046FD17C0AB01BC01DA01FB01AA0FBB1F84
S1130B80EE1FFF1F1094D1F74A0F5B1F6E1F7F1FCC
S1130B90CB01BA01660F771F881F991F09C033E084
S1130BA001C034E0660F771F881F991F3150D1F7B9
S1130BB0620F711D811D911D08950F931F93CF9393
S1130BC0DF938C01C8010E948108EC0197FD08C0E5
S1130BD00E945708892BB1F7B801CE010E94FB0887
S1130BE0CE01DF91CF911F910F9108958F929F9223
S1130BF0AF92BF92EF92FF920F931F93CF93DF9325
S1130C008C01D62F7A01B22E0E9481089C013327D1
S1130C102B32310531F02D32310561F48B2D806892
S1130C20B82ED15011F480E068C0C8010E94810838
S1130C3097FDF9CFCB2DCD7F2B2D207309F5803374
S1130C40F9F4AA24AA94AD0E09F443C0C8010E9481
S1130C50810897FD3EC09C012F7D3327283531053F
S1130C6049F4C264D250A9F1C8010E94810897FFD7
S1130C7007C02FC0B6FE02C0C26001C0C261DA2D37
S1130C80812C912C540120ED280F283080F0C4FFD2
S1130C9004C0B8010E94FB0819C02A3040F0C6FF06
S1130CA0F8CF2F7D3FEE320F363098F727504C2F78
S1130CB0C501B4010E94B6054B015C01C260D1506C
S1130CC059F0C8010E94810897FFDDCFC1FD04C01F
S1130CD0AACF812C912C5401C7FF08C0B094A094D2
S1130CE090948094811C911CA11CB11C2C2FB501E3
S1130CF0A401C7010E94AA0581E0DF91CF911F9151
S1130D000F91FF90EF90BF90AF909F908F900895B8
S1130D10A0E2B0E0EEE8F6E00C9478095C01962ECF
S1130D207A01F9018E010F5F1F4F680180E2D8013B
S1130D301D928A95E9F7D50113968C9080E090E096
S1130D40612C712C30E061E070E083FC259183FE1E
S1130D5021918F01522E211103C080E090E092C0B6
S1130D602E3511F4009751F1432F50E048175907DD
S1130D703CF42D3559F12D3219F4772009F103C0D3
S1130D80772009F46AC0452D469546954695D601C7
S1130D90A40FB11D452D47708B0102C0000F111F18
S1130DA04A95E2F7A8015C91452B4C93651459F0E0
S1130DB0561410F45394E7CF5A94E5CF31E004C0AD
S1130DC07724739401C0712C0196BFCF772019F05A
S1130DD08E8180628E83311103C08824839417C06E
S1130DE0F6019E012F5D3F4F8081809581932E17E0
S1130DF03F07D1F7F2CFE114F10429F0D7018C9326
S1130E00F70131967F019A94812C9920F9F0C5015C
S1130E100E94810897FD18C0FC01FF2723E0F59587
S1130E20E7952A95E1F7EC0DFD1D208130E0AC013A
S1130E304770552702C0359527954A95E2F720FD5E
S1130E40DACFB5010E94FB08811087CFE114F104C9
S1130E5011F0D7011C92C80115C0422F4695469542
S1130E604695D601A40FB11D422F47708B0102C0D5
S1130E70000F111F4A95E2F7A8015C91452B4C9392
S1130E80622EA2CFA096EFE00C949409A0E0B0E00B
S1130E90ECE4F7E00C9478096C01EB015A01FC01D5
S1130EA017821682512CF601E380FE01E3FC859142
S1130EB0E3FE8191182FEF01882309F4EEC090E03E
S1130EC00E945708892B21F0C6010E94DD05EBCF53
S1130ED0153241F4FE01E3FC1591E3FE1191EF019B
S1130EE0153281F4C6010E94810897FDD4C0412FB8
S1130EF050E09C01332724173507A9F2B6010E945C
S1130F00FB08CBC01A3239F4E3FC1591E3FE1191CE
S1130F10EF0101E001C000E0F12C20ED210F2A30A7
S1130F2080F402606F2D70E080E090E040E20E9467
S1130F30B605F62EFE01E3FC1591E3FE1191EF01D7
S1130F40ECCF01FF03C0F11003C0A7C0FF24FA9443
S1130F50183619F01C3651F010C0FE01E3FC15914F
S1130F60E3FE1191EF01183641F408600460FE01BC
S1130F70E3FC1591E3FE1191EF01112309F48DC0F7
S1130F80612F70E084EB90E00E946008892B09F4E3
S1130F9084C000FD07C0F50180809180C5010296E0
S1130FA05C0102C0812C912C1E3651F4F60146815D
S1130FB0578160E070E0202FC4010E94AA0573CF1E
S1130FC01336A9F401FD02C0FF24F394C6010E9464
S1130FD0810897FD60C08114910429F0F401808395
S1130FE0C40101964C01FA94F110F0CF50C01B35A6
S1130FF059F49E01A4016F2DC6010E948806EC01DC
S1131000892B09F044C03EC0C6010E94DD0597FD4E
S113101042C01F3661F128F4143639F1193651F102
S113102028C0133771F0153701F123C081149104DE
S113103029F0F4016082C40101964C01FA94FF2066
S113104071F0C6010E9481083C0197FD08C00E940E
S11310505708892B59F3B601C3010E94FB08811478
S11310609104A9F0F401108212C0006203C000616F
S113107001C00064202FA4016F2DC6010E94F60553
S1131080811105C0F6018381807329F406C000FD37
S11310900ACF539408CF552019F0852D90E002C053
S11310A08FEF9FEFCDB7DEB7EFE00C949409911169
S11310B00C947209803219F089508550C8F708954C
S11310C0FC010590061621F00020D9F7C00108950F
S11310D03197CF010895FC010590615070400110D3
S11310E0D8F7809590958E0F9F1F0895FC0161504D
S11310F0704001900110D8F7809590958E0F9F1F36
S11311000895CF93DF93EC012B8120FF33C026FF9A
S11311100AC02F7B2B838E819F8101969F838E83B0
S11311208A8190E029C022FF0FC0E881F981808183
S1131130082E000C990B009719F420622B831AC017
S11311403196F983E8830EC0EA85FB85099597FFFC
S113115009C02B81019611F080E201C080E1822B4D
S11311608B8308C02E813F812F5F3F4F3F832E83A7
S1131170992702C08FEF9FEFDF91CF9108950F93CE
S11311801F93CF93DF93FB01238121FD03C08FEFD6
S11311909FEF2CC022FF16C04681578124813581E0
S11311A04217530744F4A081B1819D012F5F3F4F43
S11311B0318320838C93268137812F5F3F4F378380
S11311C0268314C08B01EC01FB010084F185E02D22
S11311D00995892BE1F6D80116968D919C91179764
S11311E0019617969C938E931697CE01DF91CF911B
S11311F01F910F910895FB01238120FF12C026FD4A
S113120010C08F3F3FEF930761F082832F7D2064EE
S113121023832681378121503109378326839927F7
S113122008958FEF9FEF0895FA01AA27283051F10E
S1131230203181F1E8946F936E7F6E5F7F4F8F4F03
S11312409F4FAF4FB1E03ED0B4E03CD0670F781F62
S1131250891F9A1FA11D680F791F8A1F911DA11D47
S11312606A0F711D811D911DA11D20D009F4689480
S11312703F912AE0269F11243019305D3193DEF628
S1131280CF010895462F4770405D4193B3E00FD0DE
S1131290C9F7F6CF462F4F70405D4A3318F0495DC9
S11312A031FD4052419302D0A9F7EACFB4E0A695AC
S11312B09795879577956795BA95C9F700976105CE
S11312C0710508959B01AC010A2E06945795479524
S11312D037952795BA95C9F7620F731F841F951F19
S11312E0A01D08959927882708952F923F924F9221
S11312F05F926F927F928F929F92AF92BF92CF92A2
S1131300DF92EF92FF920F931F93CF93DF93CDB7AA
S1131310DEB7CA1BDB0B0FB6F894DEBF0FBECDBF22
S113132009942A88398848885F846E847D848C84F3
S11313309B84AA84B984C884DF80EE80FD800C81FC
S11313401B81AA81B981CE0FD11D0FB6F894DEBFDF
S10F13500FBECDBFED010895F894FFCF4F
S113135C000000010000000000008E0000000000EE
S113136C0002000000007F00000000000D0A0A4586
S113137C6E74657220436F6D6D616E643A20003F2C
S113138C000D0A4C697374206F6620636F6D6D6178
S113139C6E64733A000D0A52202D2073657420720A
S11313AC65642076616C7565000D0A47202D2073E9
S11313BC657420677265656E2076616C7565000DC9
S11313CC0A42202D2073657420626C756520766149
S11313DC6C7565000D0A57202D2077726974652091
S11313EC76616C756520746F204C4544000D0A536E
S11313FC202D20737461747573000D0A3F202D2009
S113140C646973706C617920636F6D6D616E647364
S113141C200D000D0A56616C75653A200047726503
S113142C656E204C45442073657420746F3A2025F6
S113143C6400526564204C45442073657420746FB9
S113144C3A20256400426C7565204C454420736534
S113145C7420746F3A2025640057000D0A523D2500
S113146C642C20473D25642C20423D256420736563
S113147C6E7420746F204C45442E0053000D0A5298
S113148C65643D25642C20477265656E3D25642C8E
S113149C20426C75653D2564000A0D436F6D6D61CA
S11314AC6E64206E6F74207265636F676E697A6503
S11314BC642C20666F722068656C702075736520CF
S10714CC273F27008B
S9030000FC
