:100000000C945A000C946F000C946F000C946F00C9
:100010000C946F000C946F000C946F000C946F00A4
:100020000C946F000C946F000C946F000C946F0094
:100030000C946F000C946F000C946F000C946F0084
:100040000C946F000C946F000C946F000C946F0074
:100050000C946F000C946F000C946F000C946F0064
:100060000C946F000C946F000C946F000C946F0054
:100070000C946F000C946F000C946F000C946F0044
:100080000C946F000C946F000C946F000C946F0034
:100090000C946F000C946F000C946F000C946F0024
:1000A0000C946F000C946F000C946F000C946F0014
:1000B0000C946F0011241FBECFEFD8E0DEBFCDBF80
:1000C00011E0A0E0B1E0E4E1F2E002C005900D92A1
:1000D000A031B107D9F70E94C4000C9408010C9418
:1000E000000098B19F7D98B998B19F7E98B998B15A
:1000F000906298B98BB9029502950295029588B1E4
:100100008F7D88B9029502950295029588B18F7D01
:1001100088B980ED8A95F1F7089598B19F7D98B9D7
:1001200098B1906198B998B1906298B98BB90295DD
:1001300002950295029588B18F7D88B90295029546
:100140000295029588B18F7D88B980ED8A95F1F787
:1001500008950F931F93CF938C01C0E003C0CF5F2E
:100160000E948D00F801EC0FF11D80818111F7CF05
:10017000CF911F910F91089590E4699F800D1124F4
:1001800080680E947100089587B1806387B98AB141
:100190008FEF8AB92FEF81EE94E02150804090409C
:1001A000E1F700C0000080E30E9471008FE19EE44F
:1001B0000197F1F700C0000088E30E9471008FE80A
:1001C00091E00197F1F700C0000088E00E94710003
:1001D00081E00E9471008FE39FE10197F1F700C079
:1001E000000086E00E9471008FE00E94710060E0D4
:1001F00082E00E94BC0080E091E00E94A90061E0E2
:1002000085E00E94BC0089E091E00E94A900FFCF38
:04021000F894FFCF90
:100214004E696B6F6C61732100417274656D2100CE
:00000001FF
