:020000020000FC
:100000000E9409050FEF10E004B905B907B908B956
:100010001AB90BB9259A2D9A519A2FEF30E040E08A
:1000200028B92BB92D9A0E946200289A2B980000BB
:1000300029B1207F203FB1F42B9A2A98000029B1E2
:10004000207F203F79F42A9A2998000029B1207F47
:10005000203F41F4299A2898000029B1207F203FB1
:1000600009F4E3CF0E94620039B1307F45B14F708F
:10007000340F00C040E0FEE0E0E41491311719F0C5
:10008000E3954395FACFFEE0E0E05527E40FF51F36
:1000900004910E94000500C00E945600509558B976
:1000A00056FF02C02D9A01C02D9807C0FCE0E0E089
:1000B0005527E40FF51F5491089529B1207F203F63
:1000C000E1F7ABCF78EC88E28A95F1F77A95D9F72A
:0400D000000008958F
:100C0000065B4F77666D7D7C077F6F39003F005E26
:100E00003132334134353642373839432A3023447E
:100E400077B7D7E77BBBDBEB7DBDDDED7EBEDEEEAE
:100A00004F934091C00045FFFCCF0093C6004F912B
:100A10000895FF93F0E0F093C000F8E0F093C10078
:100A2000F6E0F093C200F0E0F093C500F7E6F09333
:100A3000C400FF91089548504C49562041484C4C01
:00000001FF
