S00F00004C61625F3756322E73726563E8
S11300000C949B000C94B8000C94B8000C94B800A9
S11300100C94B8000C94B8000C94B8000C94B8007C
S11300200C94B8000C94B8000C94B8000C94B8006C
S11300300C94B8000C94F5000C94B8000C94B8001F
S11300400C94B8000C94B8000C94B8000C94B8004C
S11300500C94B8000C94B8000C94B8000C94B8003C
S11300600C94B8000C94B8000C94B8000C94B8002C
S11300700C94B8000C94B8000C94B8000C94B8001C
S11300800C94B8000C94B8000C94B8000C94B8000C
S11300900C94B8000C94B8000C94B8000C94B800FC
S11300A00C94B8000C94B8000C94B8000C94B800EC
S11300B00C94B80007634236B79BD8A71A39685620
S11300C018AEBAAB558C1D3CB7CC5763BD6DEDFD76
S11300D0753EF6177231BF000000803F0800000033
S11300E0BE922449123EABAAAA2ABECDCCCC4C3E29
S11300F000000080BEABAAAAAA3E00000000BF0018
S11301000000803F0000000000084178D3BB438713
S1130110D1133D190E3CC3BD4282AD2B3E68EC8227
S113012076BED98FE1A93E4C80EFFFBE01C4FF7FAC
S11301303F000000000011241FBECFEFD8E0DEBF57
S1130140CDBF11E0A0E0B1E0E6E2FBE002C0059023
S11301500D92A631B107D9F721E0A6E1B1E001C0C3
S11301601D92A831B207E1F70E9488010C94910511
S11301700C940000CF93DF93CDB7DEB764970FB62E
S1130180F894DEBF0FBECDBF611103C098E095B9EE
S11301900EC0613019F494E095B909C0623019F4C5
S11301A092E095B904C0633011F491E095B994E1FB
S11301B0E2E0F1E0DE01119601900D929A95E1F7EB
S11301C0E82FF0E0EE0FFF1F81E090E08C0F9D1F01
S11301D0E80FF91F80818BB964960FB6F894DEBFDF
S11301E00FBECDBFDF91CF9108951F920F920FB62E
S11301F00F921124CF92DF92EF92FF922F933F93AD
S11302004F935F936F937F938F939F93AF93BF931A
S1130210CF93DF93EF93FF93C0910001D09101013D
S11302206091170170E080E090E00E9495029B01CC
S1130230AC0160E070E080E291E40E9423036B0172
S11302407C01BE0180E090E00E949502A701960126
S11302500E94F4010E946602462F262F372FADEC30
S1130260BCEC0E9482059695879596958795969500
S113027087959C01220F331F880F991F880F991FA0
S1130280880F991F820F931F60911701481B842FB9
S11302900E94BA008091170190E0019683709078D3
S11302A0992324F401978C6F9F6F01968093170113
S11302B081E086BBFF91EF91DF91CF91BF91AF9128
S11302C09F918F917F916F915F914F913F912F916A
S11302D0FF90EF90DF90CF900F900FBE0F901F9084
S11302E0189585E08A95F1F700008CB1873051F0BC
S11302F08CB1863049F08CB1853041F08CB18330BB
S113030031F0089580E0089581E0089582E0089531
S11303108FEF8AB984B91DB81092800081E0809370
S1130320810080936F0078948FE39CE90197F1F743
S113033000C00000F8940E947101811102C0109263
S1130340160180911601811110C00E947101813043
S113035061F480931601809100019091010101964E
S1130360909301018093000124C0809116018111B2
S11303700CC00E947101823041F481E08093160127
S1130380109201011092000114C080911601811194
S113039010C00E947101833061F481E080931601E2
S11303A08091000190910101019790930101809344
S11303B0000180910001909101018031974229F45C
S11303C010920101109200010DC0809100019091E2
S11303D001018131974230F08FE097E2909301015F
S11303E0809300017894A0CF0E9408020C94E90243
S11303F00E94E20258F00E94DB0240F029F45F3FC1
S113040029F00C94D20251110C941D030C94D802BF
S11304100E94FA0268F39923B1F3552391F3951BD3
S1130420550BBB27AA2762177307840738F09F5F11
S11304305F4F220F331F441FAA1FA9F335D00E2E7E
S11304403AF0E0E832D091505040E695001CCAF7EB
S11304502BD0FE2F29D0660F771F881FBB1F2617AE
S113046037074807AB07B0E809F0BB0B802DBF0185
S1130470FF2793585F4F3AF09E3F510578F00C9454
S1130480D2020C941D035F3FE4F3983ED4F38695A7
S113049077956795B795F7959F5FC9F7880F911D75
S11304A09695879597F90895E1E0660F771F881F61
S11304B0BB1F621773078407BA0720F0621B730B14
S11304C0840BBA0BEE1F88F7E09508950E9402038F
S11304D088F09F5798F0B92F9927B751B0F0E1F001
S11304E0660F771F881F991F1AF0BA95C9F714C0B1
S11304F0B13091F00E941C03B1E008950C941C03E8
S1130500672F782F8827B85F39F0B93FCCF38695E9
S113051077956795B395D9F73EF490958095709546
S113052061957F4F8F4F9F4F0895E89409C097FBC3
S11305303EF490958095709561957F4F8F4F9F4FB6
S11305409923A9F0F92F96E9BB279395F6958795FA
S113055077956795B795F111F8CFFAF4BB0F11F4BD
S113056060FF1BC06F5F7F4F8F4F9F4F16C0882364
S113057011F096E911C0772321F09EE8872F762F9A
S113058005C0662371F096E8862F70E060E02AF0DB
S11305909A95660F771F881FDAF7880F96958795C7
S11305A097F9089597F99F6780E870E060E00895EF
S11305B09FEF80EC089500240A9416161706180677
S11305C00906089500240A94121613061406050653
S11305D00895092E0394000C11F4882352F0BB0FE4
S11305E040F4BF2B11F460FF04C06F5F7F4F8F4F47
S11305F09F4F089557FD9058440F551F59F05F3F82
S113060071F04795880F97FB991F61F09F3F79F030
S113061087950895121613061406551FF2CF4695B2
S1130620F1DF08C0161617061806991FF1CF869534
S11306307105610508940895E894BB276627772718
S1130640CB0197F90895FA01EE0FFF1F30962105AB
S11306503105A1F16115710561F48038BFE39B0791
S113066049F168949038810561F08038BFEF9B07A9
S113067041F099234AF5FF3FE1053105210519F1C0
S1130680E8940894E795D901AA2329F4AB2FBE2F47
S1130690F85FD0F310C0FF5F70F4A695E0F7F73968
S11306A050F019F0FF3A38F49F779F930DD00F90D4
S11306B007FC9058089546F00C94D80260E070E06E
S11306C080E89FE308954FE79F775F934F933F93AD
S11306D02F930E941E042F913F914F915F910E948E
S11306E09A040C947B0329F416F00C94D2020C9413
S11306F01C030C94D8020E940203A8F39638A0F7B6
S113070007F80F92E8942BE33AEA48EB5FE70E947C
S1130710B0040F920F920F924DB75EB70F920E94E2
S11307206604E4EBF0E00E94AD034F915F91EF911A
S1130730FF91E595EE1FFF1F49F0FE57E06844273F
S1130740EE0F441FFA95E1F74195550B0E94E00323
S11307500F9007FE0C94D4030895DF93CF931F9357
S11307600F93FF92EF92DF927B018C01689406C095
S1130770DA2EEF010E94AD04FE01E894A5912591C3
S1130780359145915591A6F3EF010E941F05FE0195
S11307909701A801DA9469F7DF90EF90FF900F9129
S11307A01F91CF91DF9108959B01AC0160E070E04F
S11307B080E89FE30C94F4010C94D2020C94740529
S11307C00E940203D8F39923C9F3940F511DA3F394
S11307D09150504094F059F0882332F0660F771FFF
S11307E0881F91505040C1F79E3F51052CF7880F48
S11307F0911D9695879597F908955F3FACF0983EC3
S11308009CF0BB27869577956795B79508F4B160FA
S11308109395C1F7BB0F58F711F460FFE8CF6F5FF2
S11308207F4F8F4F9F4FE3CF0C941D0316F00C9412
S113083074050C94D80268940C94D2020E940203AA
S1130840A8F39923C1F3AEF3DF93CF931F930F93D0
S1130850FF92C92FDD2788232AF02197660F771F7F
S1130860881FDAF720E030E040E85FEB9FE3883947
S113087020F0803E38F021968F770E940805ECED39
S1130880F0E004C00E940805E9E0F1E00E94AD0335
S11308908B01BE01EC01FB2E6F5771097595771F13
S11308A0880B990B0E94970228E132E741E35FE34A
S11308B00E94AD04AF2D9801AE01FF900F911F91DE
S11308C0CF91DF910E941F050C94E902FA01DC012B
S11308D0AA0FBB1F9B01AC01BF5728F42227332763
S11308E04427507820C0B75190F4AB2F002446958C
S11308F037952795011CA395D2F3002071F0220FA0
S1130900331F441FB395DAF30ED00C9407056130FE
S11309107105A0E88A07B94630F49B01AC0166274B
S1130920772788279078309621F02083318342837B
S1130930538308950E94AD040C94E9020E94DB02E3
S113094038F00E94E20220F0952311F00C94D202B8
S11309500C94D80211240C941D030E94FA0270F323
S1130960959FC1F3950F50E0551F629FF001729F50
S1130970BB27F00DB11D639FAA27F00DB11DAA1F5F
S1130980649F6627B00DA11D661F829F2227B00DAC
S1130990A11D621F739FB00DA11D621F839FA00D37
S11309A0611D221F749F3327A00D611D231F849F87
S11309B0600D211D822F762F6A2F11249F575040DE
S11309C09AF0F1F088234AF0EE0FFF1FBB1F661F59
S11309D0771F881F91505040A9F79E3F510580F022
S11309E00C94D2020C941D035F3FE4F3983ED4F3BD
S11309F0869577956795B795F795E7959F5FC1F7C6
S1130A00FE2B880F911D9695879597F90895505858
S1130A10BB27AA270E941F050C94E9020E94DB024F
S1130A2038F00E94E20220F039F49F3F19F426F4D2
S1130A300C94D8020EF4E095E7FB0C94D202E92F53
S1130A400E94FA0258F3BA176207730784079507DE
S1130A5020F079F4A6F50C941C030EF4E0950B2E0B
S1130A60BA2FA02D0B01B90190010C01CA01A001FC
S1130A701124FF27591B99F0593F50F4503E68F157
S1130A801A16F040A22F232F342F4427585FF3CF98
S1130A90469537952795A795F0405395C9F77EF469
S1130AA01F16BA0B620B730B840BBAF09150A1F0B2
S1130AB0FF0FBB1F661F771F881FC2F70EC0BA0F38
S1130AC0621F731F841F48F4879577956795B795C0
S1130AD0F7959E3F08F0B0CF9395880F08F09927BB
S1130AE0EE0F9795879508959F3F31F0915020F42C
S1130AF0879577956795B795880F911D96958795F6
S1130B0097F90895A29FB001B39FC001A39F700DF0
S1130B10811D1124911DB29F700D811D1124911D01
S1090B200895F894FFCFD4
S1130B2686143F0006005B004F0066006D007D00E2
S1090B3607007F006F00C0
S9030000FC
